:1000000001308A0083290000FF00030E8301A10054
:100010000A08A0008A010408A2007708A300780853
:10002000A4007908A5007A08A600831383120B1E8A
:100030001B288B182C28220884002308F70024088A
:10004000F8002508F9002608FA0020088A00210E89
:100050008300FF0E7F0E09008A110A122F282B142D
:100060008316011F352801133628011783128B10C0
:100070008A110A121B280C1C47280130A7070318F5
:10008000A80A0319A90A0319AA0A0C105B280F0869
:10009000FA000E08F7000F087A02031D47287708B8
:1000A0000C1C64280130A7070318A80A0319A90A21
:1000B0000319AA0A0C100F08FA000E08F7000F081F
:1000C0007A02031D5B287708F7007A08F8002708F2
:1000D000F9002808FA002908C900C90CFA0CF90C23
:1000E000F80CF70CC90CFA0CF90CF80CF70CC90C4D
:1000F000FA0CF90CF80CF70CC90CFA0CF90CF80C0A
:10010000F70CC90CFA0CF90CF80CF70C08004908AC
:10011000013A0319A428033A0319A928013A03193B
:10012000AF28073A0319B528013A0319BB28033A47
:100130000319C128013A0319C7280F3A0319CD281A
:10014000013A0319D328D92883168701831287011E
:10015000D92883168701013083128700D928831696
:100160008701033083128700D9288316870107305F
:1001700083128700D928831687010F3083128700E6
:10018000D928831687018F3083128700D9288316D8
:100190008701CF3083128700D92883168701EF307B
:1001A00083128700D92883168701FF3083128700C6
:1001B000D92808004D084902F7004A08F8004E08FF
:1001C000031C4E0FF8024B08F9004F08031C4F0F99
:1001D000F9024C08FA005008031C500FFA028A1169
:1001E0000A120D2A4A3084008313000803190529D6
:1001F0000230F800F701F70BFB28F80BFA289730CC
:10020000F700F70B0129800BF8280800FD30831652
:1002100086008312861915290430AB060230C90006
:10022000FA30CA00F220C90B10292B1D54293F3087
:100230008316850083128517FD308316860083128E
:10024000861A2B290830AB060230C900FA30CA00E2
:10025000F220C90B2629AB1941293F3083168500AE
:1002600083120517FD3083168600831206193A297A
:10027000C00A4029FD30831686008312061EC00383
:100280005329AB1D53293F30831685008312051374
:10029000AB1C5029C00A4008083C031CAB10532972
:1002A000C00B5329AB145F292B195F293F308316EC
:1002B00085008312851383168500831205138A1126
:1002C0000A12272AC908031D6729C9016D2949088F
:1002D000083C03186D290930C9004908F8008A1143
:1002E0000A12322A0830CC02031C82294C308400C6
:1002F00083130310800C0008031982298029000051
:10030000800B7F29080003081F3983007130831692
:100310008F0090010F088312AA01A901A801A7016B
:10032000B53090008E018F018E010C102B10C00192
:10033000AB102B11AB11831603170908C0398900C4
:1003400003131F129F1200300317880083128701C6
:1003500088018901831328300313AC002330AD00DA
:100360004030AE001F30AF005830B0001B30B1003D
:100370007030B2001730B3008830B4001330B500CD
:10038000A030B6000F30B700B830B8000B30B9005D
:10039000D030BA000730BB00E830BC000330BD00ED
:1003A000BE01BF013B207A08C8007908C700780861
:1003B000C6007708C5004808C4004708C3004608BF
:1003C000C2004508C1000B16C0308B042B11AB15C1
:1003D0003F308316850083128513831685008312B0
:1003E0000513C90187203B207A08C4007908C3009F
:1003F0007808C2007708C1004408CC004308CB004D
:100400004208CA004108C9004808D0004708CF0088
:100410004608CE004508CD00DA287A08CC007908D5
:10042000CB007808CA007708C900CC08031D262A2B
:10043000CB08031D262A4A08023C03182F2AFF3A3C
:10044000031D262A49080C3C03182F2A06294408B4
:10045000C8004308C7004208C6004108C50040085C
:10046000C90062297808C0004008C90087202B1CF9
:10047000612A0310400D2C3E84008313840A000877
:10048000CA0084030008C9004A08CB00CB0ACB038A
:1004900003194E2AFF30CC007221472A4908CC00AC
:1004A0007221FD3083168600831286144230F700D5
:1004B000F70B582A0000FD30831686008312861041
:0604C0002B10F32963007C
:04400E00E42F000794
:00000001FF
;PIC16F886
;CRC=EB04  CREATED="24-Oct-19 18:37"
